<!doctype html>
<html lang="en-us">
<head>

    <meta charset="utf-8">
    <meta http-equiv="X-UA-Compatible" content="IE=edge">
    <meta name="viewport" content="width=device-width, initial-scale=1">


    <title>用shell来发tcp包 | 开发者问答集锦</title>
    <meta property="og:title" content="用shell来发tcp包 - 开发者问答集锦">
    <meta property="og:type" content="article">
        
    <meta property="article:published_time" content='2020-09-02T00:00:00&#43;08:00'>
        
        
    <meta property="article:modified_time" content='2020-09-02T00:00:00&#43;08:00'>
        
    <meta name="Keywords" content="">
    <meta name="description" content="用shell来发tcp包">
        
    <meta name="author" content="">
    <meta property="og:url" content="https://zaina.newban.cn/posts/%E7%94%A8shell%E6%9D%A5%E5%8F%91tcp%E5%8C%85/">
    <link rel="shortcut icon" href="/favicon.ico" type="image/x-icon">

    <link rel="stylesheet" href='/css/normalize.css'>
    <link rel="stylesheet" href='/css/style.css'>
    <script type="text/javascript" src="//cdn.bootcdn.net/ajax/libs/jquery/3.4.1/jquery.min.js"></script>

    
    
    
    
    
    
</head>


<body>
    <header id="header" class="clearfix">
    <div class="container">
        <div class="col-group">
            <div class="site-name ">
                
                    <a id="logo" href="https://zaina.newban.cn">
                        开发者问答集锦
                    </a>
                
                
            </div>
            <div>
                <nav id="nav-menu" class="clearfix">
                    <a class="" href="https://zaina.newban.cn">首页</a>
                    
                </nav>
            </div>
        </div>
    </div>
</header>

    <div id="body">
        <div class="container">
            <div class="col-group">

                <div class="col-8" id="main">
                    
<div class="res-cons">
    
    <article class="post">
        <header>
            <h1 class="post-title">用shell来发tcp包</h1>
        </header>
        <date class="post-meta meta-date">
            2020年9月2日
        </date>
        
        
        <div class="post-meta">
            <span id="busuanzi_container_page_pv">|<span id="busuanzi_value_page_pv"></span><span>
                    阅读</span></span>
        </div>
        
        
        <div class="post-content">
            <p>经常用tcpdump抓包来倒腾和学习， 但怎么触发tcp包呢？ 写一个客户端程序， 然后朝server上发包， 肯定可以， 但还有更简单的方法：</p>

<pre><code>exec 8&lt;&gt;/dev/tcp/10.100.70.139/19006
echo -e &quot;stats&quot; &gt;&amp;8
</code></pre>

<p>用tcpdump抓包的结果为：</p>

<pre><code>xxxxxx$ sudo tcpdump -iany port 19006 -Xnlps0
tcpdump: verbose output suppressed, use -v or -vv for full protocol decode
listening on any, link-type LINUX_SLL (Linux cooked), capture size 65535 bytes
23:56:54.177781 IP 10.100.70.139.34209 &gt; 10.100.70.139.19006: Flags [S], seq 2048518213, win 43690, options [mss 65495,sackOK,TS val 1173337789 ecr 0,nop,wscale 8], length 0
        0x0000:  4500 003c 5ef8 4000 4006 39e6 0a64 468b  E..z..E....
        0x0020:  a002 aaaa a20c 0000 0204 ffd7 0402 080a  ................
        0x0030:  45ef b6bd 0000 0000 0103 0308 0000 0000  E...............
        0x0040:  0000 0000 0000 0000 0000 0000            ............
23:56:54.177794 IP 10.100.70.139.19006 &gt; 10.100.70.139.34209: Flags [S.], seq 480321333, ack 2048518214, win 43690, options [mss 65495,sackOK,TS val 1173337789 ecr 1173337789,nop,wscale 8], length 0
        0x0000:  4500 003c 0000 4000 4006 98de 0a64 468b  E..&lt;.. e846=&quot;&quot; .df.j=&quot;&quot;&gt;.....5z..F
        0x0020:  a012 aaaa a20c 0000 0204 ffd7 0402 080a  ................
        0x0030:  45ef b6bd 45ef b6bd 0103 0308 0000 0000  E...E...........
        0x0040:  0000 0000 0000 0000 0000 0000            ............
23:56:54.177802 IP 10.100.70.139.34209 &gt; 10.100.70.139.19006: Flags [.], ack 1, win 171, options [nop,nop,TS val 1173337789 ecr 1173337789], length 0
        0x0000:  4500 0034 5ef9 4000 4006 39ed 0a64 468b  E..4^.@.@.9..dF.
        0x0010:  0a64 468b 85a1 4a3e 7a19 e846 1ca1 1f36  .dF...J&gt;z..F...6
        0x0020:  8010 00ab a204 0000 0101 080a 45ef b6bd  ............E...
        0x0030:  45ef b6bd 0000 0000 0000 0000 0000 0000  E...............
        0x0040:  0000 0000                                ....
23:57:05.744655 IP 10.100.70.139.34209 &gt; 10.100.70.139.19006: Flags [P.], seq 1:7, ack 1, win 171, options [nop,nop,TS val 1173340681 ecr 1173337789], length 6
        0x0000:  4500 003a 5efa 4000 4006 39e6 0a64 468b  E..:^.@.@.9..dF.
        0x0010:  0a64 468b 85a1 4a3e 7a19 e846 1ca1 1f36  .dF...J&gt;z..F...6
        0x0020:  8018 00ab a20a 0000 0101 080a 45ef c209  ............E...
        0x0030:  45ef b6bd 6865 6c6c 6f0a 0000 0000 0000  E...hello.......
        0x0040:  0000 0000 0000 0000 0000                 ..........
23:57:05.744679 IP 10.100.70.139.19006 &gt; 10.100.70.139.34209: Flags [.], ack 7, win 171, options [nop,nop,TS val 1173340681 ecr 1173340681], length 0
        0x0000:  4500 0034 a98b 4000 4006 ef5a 0a64 468b  E..4..@.@..Z.dF.
        0x0010:  0a64 468b 4a3e 85a1 1ca1 1f36 7a19 e84c  .dF.J&gt;.....6z..L
        0x0020:  8010 00ab a204 0000 0101 080a 45ef c209  ............E...
        0x0030:  45ef c209 0000 0000 0000 0000 0000 0000  E...............
        0x0040:  0000 0000                                ....
23:57:05.744830 IP 10.100.70.139.19006 &gt; 10.100.70.139.34209: Flags [F.], seq 1, ack 7, win 171, options [nop,nop,TS val 1173340681 ecr 1173340681], length 0
        0x0000:  4500 0034 a98c 4000 4006 ef59 0a64 468b  E..4..@.@..Y.dF.
        0x0010:  0a64 468b 4a3e 85a1 1ca1 1f36 7a19 e84c  .dF.J&gt;.....6z..L
        0x0020:  8011 00ab a204 0000 0101 080a 45ef c209  ............E...
        0x0030:  45ef c209 0000 0000 0000 0000 0000 0000  E...............
        0x0040:  0000 0000                                ....
23:57:05.748555 IP 10.100.70.139.34209 &gt; 10.100.70.139.19006: Flags [.], ack 2, win 171, options [nop,nop,TS val 1173340682 ecr 1173340681], length 0
        0x0000:  4500 0034 5efb 4000 4006 39eb 0a64 468b  E..4^.@.@.9..dF.
        0x0010:  0a64 468b 85a1 4a3e 7a19 e84c 1ca1 1f37  .dF...J&gt;z..L...7
        0x0020:  8010 00ab a204 0000 0101 080a 45ef c20a  ............E...
        0x0030:  45ef c209 0000 0000 0000 0000 0000 0000  E...............
        0x0040:  0000 0000                                ....
</code></pre>

<p>真的是爽歪歪。 能用shell搞定的事， 绝不用C/C++.</p>

        </div>

        


        

<div class="post-archive">
    <h2>See Also</h2>
    <ul class="listing">
        
        <li><a href="/posts/007hadoop%E9%9B%86%E7%BE%A4%E9%85%8D%E7%BD%AEhadoop%E9%9B%86%E7%BE%A4%E7%9A%84%E5%90%AF%E5%8A%A8%E5%92%8C%E6%B5%8B%E8%AF%95ssh%E5%85%8D%E7%99%BB%E9%99%86%E9%85%8D%E7%BD%AEstartallshhdfs%E5%B8%B8%E7%94%A8%E7%9A%84shell/">007Hadoop集群配置Hadoop集群的启动和测试SSH免登陆配置startallshhdfs常用的shell</a></li>
        
        <li><a href="/posts/009shell%E8%84%9A%E6%9C%AC%E4%B8%8B%E6%9D%A1%E4%BB%B6%E6%B5%8B%E8%AF%95eqne/">009Shell脚本下条件测试eqne</a></li>
        
        <li><a href="/posts/00pythonmanagepyshell%E5%92%8Cpython%E7%9A%84%E5%88%86%E6%9E%90/">00Pythonmanagepyshell和Python的分析</a></li>
        
        <li><a href="/posts/010zookeeper%E7%9A%84%E5%9F%BA%E6%9C%AC%E6%A6%82%E5%BF%B5zookeeper%E7%9A%84%E9%9B%86%E7%BE%A4%E6%90%AD%E5%BB%BAzookeeper%E7%9A%84shell%E5%91%BD%E4%BB%A4/">010Zookeeper的基本概念Zookeeper的集群搭建Zookeeper的shell命令</a></li>
        
        <li><a href="/posts/018dockerfileshell/">018DockerfileSHELL</a></li>
        
    </ul>
</div>


        <div class="post-meta meta-tags">
            
            <ul class="clearfix">
                
                <li><a href='https://zaina.newban.cn/tags/shell'>shell</a></li>
                
            </ul>
            
        </div>
    </article>
    
    

    
    
</div>

                    <footer id="footer">
    <div>
        &copy; 2020 <a href="https://zaina.newban.cn">开发者问答集锦 By </a>
        
    </div>
    <br />
    <div>
        <div class="github-badge">
            <a href="https://gohugo.io/" target="_black" rel="nofollow"><span class="badge-subject">Powered by</span><span class="badge-value bg-blue">Hugo</span></a>
        </div>
        <div class="github-badge">
            <a href="https://www.flysnow.org/" target="_black"><span class="badge-subject">Design by</span><span class="badge-value bg-brightgreen">飞雪无情</span></a>
        </div>
        <div class="github-badge">
            <a href="https://github.com/flysnow-org/maupassant-hugo" target="_black"><span class="badge-subject">Theme</span><span class="badge-value bg-yellowgreen">Maupassant</span></a>
        </div>
    </div>
</footer>


    
    <script type="text/javascript">
        window.MathJax = {
            tex2jax: {
                inlineMath: [['$', '$']],
                processEscapes: true
                }
            };
    </script>
    <script src='https://cdnjs.cloudflare.com/ajax/libs/mathjax/2.7.5/MathJax.js?config=TeX-MML-AM_CHTML' async></script>

<a id="rocket" href="#top"></a>
<script type="text/javascript" src='/js/totop.js?v=0.0.0' async=""></script>



    <script type="text/javascript" src="//busuanzi.ibruce.info/busuanzi/2.3/busuanzi.pure.mini.js" async></script>




                </div>

                <div id="secondary">
    <section class="widget">
        <form id="search" action='https://zaina.newban.cn/search/' method="get" accept-charset="utf-8" target="_blank" _lpchecked="1">
      
      <input type="text" name="q" maxlength="20" placeholder="Search">
      <input type="hidden" name="sitesearch" value="https://zaina.newban.cn">
      <button type="submit" class="submit icon-search"></button>
</form>
    </section>
    
    <section class="widget">
        <h3 class="widget-title">最近文章</h3>
<ul class="widget-list">
    
    <li>
        <a href="https://zaina.newban.cn/posts/001rubyruby%E4%B8%AD%E5%85%A8%E5%B1%80%E5%8F%98%E9%87%8F%E5%AE%9E%E4%BE%8B%E5%8F%98%E9%87%8F%E5%B1%80%E9%83%A8%E5%8F%98%E9%87%8F%E7%B1%BB%E5%8F%98%E9%87%8Fsymbol%E5%AF%B9%E6%AF%94/" title="001rubyRuby中全局变量实例变量局部变量类变量Symbol对比">001rubyRuby中全局变量实例变量局部变量类变量Symbol对比</a>
    </li>
    
    <li>
        <a href="https://zaina.newban.cn/posts/007hadoop%E9%9B%86%E7%BE%A4%E9%85%8D%E7%BD%AEhadoop%E9%9B%86%E7%BE%A4%E7%9A%84%E5%90%AF%E5%8A%A8%E5%92%8C%E6%B5%8B%E8%AF%95ssh%E5%85%8D%E7%99%BB%E9%99%86%E9%85%8D%E7%BD%AEstartallshhdfs%E5%B8%B8%E7%94%A8%E7%9A%84shell/" title="007Hadoop集群配置Hadoop集群的启动和测试SSH免登陆配置startallshhdfs常用的shell">007Hadoop集群配置Hadoop集群的启动和测试SSH免登陆配置startallshhdfs常用的shell</a>
    </li>
    
    <li>
        <a href="https://zaina.newban.cn/posts/009shell%E8%84%9A%E6%9C%AC%E4%B8%8B%E6%9D%A1%E4%BB%B6%E6%B5%8B%E8%AF%95eqne/" title="009Shell脚本下条件测试eqne">009Shell脚本下条件测试eqne</a>
    </li>
    
    <li>
        <a href="https://zaina.newban.cn/posts/00pythonmanagepyshell%E5%92%8Cpython%E7%9A%84%E5%88%86%E6%9E%90/" title="00Pythonmanagepyshell和Python的分析">00Pythonmanagepyshell和Python的分析</a>
    </li>
    
    <li>
        <a href="https://zaina.newban.cn/posts/010zookeeper%E7%9A%84%E5%9F%BA%E6%9C%AC%E6%A6%82%E5%BF%B5zookeeper%E7%9A%84%E9%9B%86%E7%BE%A4%E6%90%AD%E5%BB%BAzookeeper%E7%9A%84shell%E5%91%BD%E4%BB%A4/" title="010Zookeeper的基本概念Zookeeper的集群搭建Zookeeper的shell命令">010Zookeeper的基本概念Zookeeper的集群搭建Zookeeper的shell命令</a>
    </li>
    
    <li>
        <a href="https://zaina.newban.cn/posts/018dockerfileshell/" title="018DockerfileSHELL">018DockerfileSHELL</a>
    </li>
    
    <li>
        <a href="https://zaina.newban.cn/posts/01shell%E5%85%A5%E9%97%A801bashshell%E7%89%B9%E6%80%A7/" title="01Shell入门01bashShell特性">01Shell入门01bashShell特性</a>
    </li>
    
    <li>
        <a href="https://zaina.newban.cn/posts/01shell%E5%8F%98%E9%87%8F/" title="01Shell变量">01Shell变量</a>
    </li>
    
    <li>
        <a href="https://zaina.newban.cn/posts/01shell%E5%9F%BA%E7%A1%80%E6%A6%82%E8%BF%B0%E8%84%9A%E6%9C%AC%E6%89%A7%E8%A1%8C%E6%96%B9%E5%BC%8Fbash%E5%9F%BA%E6%9C%AC%E5%8A%9F%E8%83%BD/" title="01Shell基础概述脚本执行方式Bash基本功能">01Shell基础概述脚本执行方式Bash基本功能</a>
    </li>
    
    <li>
        <a href="https://zaina.newban.cn/posts/01shell%E7%BC%96%E7%A8%8Bhelloworld/" title="01shell编程helloworld">01shell编程helloworld</a>
    </li>
    
</ul>
    </section>

    

    <section class="widget">
        <h3 class="widget-title"><a href="/categories">分类</a></h3>
<ul class="widget-list">
    
</ul>
    </section>

    <section class="widget">
        <h3 class="widget-title"><a href="/tags">标签</a></h3>
<div class="tagcloud">
    
    <a href="https://zaina.newban.cn/tags/ruby/">ruby</a>
    
    <a href="https://zaina.newban.cn/tags/shell/">shell</a>
    
</div>
    </section>

    

    <section class="widget">
        <h3 class="widget-title">其它</h3>
        <ul class="widget-list">
            <li><a href="https://zaina.newban.cn/index.xml">文章 RSS</a></li>
        </ul>
    </section>
</div>
            </div>
        </div>
    </div>
</body>

</html>